:060000000A128A11AC2F68
:100F580083010A128A11B02F8316031387018312A3
:100F680003138701B72F0130831203138700023060
:100F7800F200D730F100C430F000F00BC12FF10BB4
:100F8800C12FF20BC12F64000430831203138700B2
:100F98000230F200D730F100C430F000F00BD22F4D
:100FA800F10BD22FF20BD22F6400023083120313FD
:100FB80087000230F200D730F100C430F000F00BA7
:100FC800E32FF10BE32FF20BE32F640008308312B9
:100FD800031387000230F200D730F100C430F0006C
:100FE800F00BF42FF10BF42FF20BF42F6400B72F52
:080FF800B72F0A128A1100282C
:02400E003A3F37
:00000001FF
